:020000040800F2
:10000000E8060020AD010008C13400087D2E00087C
:1000100051340008D1090008B93F00080000000071
:10002000000000000000000000000000C53B0008C8
:10003000E50C00080000000011390008C73B00086B
:10004000C7010008C7010008C7010008C701000870
:10005000C7010008C7010008C7010008C701000860
:10006000C7010008C7010008C7010008C701000850
:10007000C7010008C7010008C7010008C701000840
:10008000C7010008C7010008C70100080000000000
:10009000000000000000000000000000C701000890
:1000A000C7010008753C0008C7010008C701000827
:1000B000C7010008C7010008C7010008C701000800
:1000C000C7010008C7010008C7010008C7010008F0
:1000D000C7010008AD3F0008C7010008000000008C
:1000E000250E000815390008C701000800000000AF
:1000F000000000000000000000000000C701000830
:1001000000000000C7010008C7010008C70100087F
:1001100000000000000000000000000000000000DF
:10012000C7010008C7010008C7010008C70100088F
:10013000C7010008000000000000000000000000EF
:10014000000000000000000000000000C7010008DF
:10015000C7010008C7010008C7010008C70100085F
:10016000C7010008C70100080000000000000000EF
:10017000000000000000000000000000000000007F
:1001800000000000C701000800000000000000009F
:10019000C7010008C7010008DFF80CD000F046FBDB
:1001A0000048004735450008E8060020064880471B
:1001B00006480047FEE7FEE7FEE7FEE7FEE7FEE74C
:1001C000FEE7FEE7FEE7FEE7653C00089901000850
:1001D0002DE9F05F0546002092469B46884606467C
:1001E000814640241BE0284641464746224600F00F
:1001F0003DFA53465A46C01A914110D3114618464B
:10020000224600F024FA2D1A67EB01084F462246D9
:100210000120002100F01BFA17EB00094E41201EBF
:10022000A4F10104DFDC484631462A464346BDE8D6
:10023000F09FD2B201E000F8012B491EFBD27047BB
:100240000022F6E710B513460A4604461946FFF7A2
:10025000F0FF204610BD2DE9FE4F804681EA0300E5
:10026000C00F0C46009021F0004123F00045B8EB90
:100270000200A94105D24046214690461C460B4645
:10028000024623F00040104347D0270DC7F30A0071
:10029000C3F30A510290401A019040286BDAC3F36D
:1002A000130040F4801B0098924620B10023D2EB4B
:1002B000030A63EB0B0B01985946C0F1400250460C
:1002C00000F0C5F906460D4650465946019A00F021
:1002D000DDF910EB08006141002487EA115284EA3D
:1002E000E7731A4340D0009A62B3019A012A4FEA99
:1002F000075215DC001B61EB02014FF0004202EADD
:100300000752CDE90042001C41F5801132462B46D0
:1003100000F014FA03B0BDE8F08F40462146F9E73B
:10032000001B61EB0201001C41F5801300185B41CA
:100330002018A2F5001747EB030140EAD570B61963
:100340006D4111E06D084FEA360645EAC0754FEA87
:100350000752001B61EB0201001C41F580114908A6
:100360004FEA30000019514132462B4603B0BDE838
:10037000F04F00F0D4B90098012240000023D0EBE8
:10038000020263EBE073009821464FEAE074B8EB99
:10039000000061EB0401E9E783F000435BE781F0D3
:1003A000004158E72DE9FE4F81EA030404F00044C0
:1003B00021F0004100944FF0000B23F0004350EA7D
:1003C00001045ED052EA03045BD0C3F30A54C1F3C4
:1003D0000A552C44A4F2F3340194A0FB0254C1F357
:1003E000130141F48011C3F3130343F4801301FBA1
:1003F000024400FB034E840A970A44EA815447EA08
:100400008357A4FB076802958D0A05FB07854FEA11
:10041000932C04FB0C542705029D4FEA065847EA2B
:100420001637B5EB08056EEB070C870E920E47EA00
:10043000811742EA8312A7FB0201B6EB0B0164EBC2
:1004400000042B0D43EA0C335E1844EB1C50DA46D3
:100450005146E7FB0201C5F313044FEA0B3343EAAD
:1004600014534FEA0432019C43EA0603A4F10C043E
:100470000294009CCDE900B400F060F903B0BDE83F
:10048000F08F00200146F9E72DE9F04D81EA0304E1
:1004900004F0004B21F0004514464FF0000A23F011
:1004A000004150EA050220D054EA01021DD0C5F3F4
:1004B0000A570246C5F31303C1F31300C1F30A56EA
:1004C00040F4801543F48013A7EB0608101BD646B2
:1004D00008F2FD3873EB050002D308F1010801E0D2
:1004E00092185B41B8F1000F03DA00200146BDE825
:1004F000F08D00204FF48011064684460EE0171B55
:1005000073EB050705D3121B63EB050306434CEAA7
:10051000010C49084FEA300092185B4150EA01078C
:10052000EDD152EA030012D082EA040083EA050109
:10053000084305D0101BAB4106D20122002306E080
:1005400000224FF0004302E06FF0010253101AEB5B
:1005500006004CEB085110EB0A0041EB0B01BDE823
:10056000F04D00F0DCB80EB540F2334102910021AD
:10057000CDE900110A460B4600F0E0F803B000BDDB
:1005800070B5C1F30A5201F000450024C1F3130114
:1005900040F2FF3341F480119A4201DA002070BD2D
:1005A00040F233439A42A2F2334203DC524200F05B
:1005B0005DF800E090402C43F1D0404270BDC1F3A3
:1005C0000A5210B5C1F3130140F2FF3341F4801118
:1005D0009A4201DA002010BD40F233439A42A2F25F
:1005E000334203DC524200F041F810BD904010BD90
:1005F00000F0004230F000400AD0C10D01F56071FA
:10060000C0F3160042EA0151C20840071143704787
:1006100000200146704701F0004330B421F0004152
:1006200050EA010206D00A0DA2F56072C1F313016F
:10063000002A02DC30BC00207047440F44EAC104A9
:10064000C100E01830BC00EBC25000F031B8202AE5
:1006500004DB203A00FA02F1002070479140C2F119
:10066000200320FA03F3194390407047202A04DB4B
:10067000203A21FA02F00021704721FA02F3D0401B
:10068000C2F120029140084319467047202A06DB38
:10069000CB17203A41FA02F043EAE07306E041FA50
:1006A00002F3D040C2F1200291400843194670473E
:1006B0000029A8BF7047401C490008BF20F0010076
:1006C000704710B4B0FA80FC00FA0CF050EA010454
:1006D00004BF10BC704749B1CCF1200421FA04F4E6
:1006E00011FA0CF118BF012121430843A3EB0C01BF
:1006F000CB1D4FEA00614FEA102042BF002010BC22
:10070000704700EBC35010440029A4BF10BC7047D1
:10071000401C490008BF20F0010010BC704710B514
:10072000141E73F1000408DA401C41F10001921814
:100730005B411A4301D120F0010010BD2DE9F04DBD
:1007400092469B4611B1B1FA81F202E0B0FA80F212
:1007500020329046FFF77BFF04460F4640EA0A002E
:1007600041EA0B0153465A46084313D0114653EA57
:10077000010019D0C8F140025046FFF777FF054647
:100780000E46504659464246FFF761FF084305D0E2
:10079000012004E020463946BDE8F08D00200543E5
:1007A00046EAE0762C4337430A986305E40AA0EB57
:1007B00008000022FD0A44EA47540A3002D500200E
:1007C0000146E9E7010510196941DDE9084500190D
:1007D0006941BDE8F04DA2E70EB5C10F80EAE070B7
:1007E0000844CA07002140F233438DE80E000A4650
:1007F0000B46FFF7A3FF03B000BD000030B5041E99
:1008000071F1000404DB4FF00044404264EB01014D
:10081000141E73F1000405DB1C464FF000435242E6
:1008200063EB04038B4208BF824230BD064C074D88
:1008300006E0E06840F0010394E8070098471034B0
:10084000AC42F6D3FFF7ACFCC8510008E8510008F1
:1008500070B58C1810F8015B15F0070301D110F882
:10086000013B2A1106D110F8012B03E010F8016BAF
:1008700001F8016B5B1EF9D12B0705D40023521E32
:100880000DD401F8013BFAE710F8013BCB1A921C9A
:1008900003E013F8015B01F8015B521EF9D5A14298
:1008A000D8D3002070BD0000464910B54A6822F434
:1008B00040324A604A6843681A434A6001684A689D
:1008C00022F480724A6001684A68036942EA03229E
:1008D0004A6001684A6822F040724A6001684A68CA
:1008E00083681A434A6001688A6822F400628A6059
:1008F00001688A68C3681A438A60816A6FF070620F
:10090000D14201688A6822F070628A6001688A6850
:100910000CD0836A1A438A6001688A6822F04052C8
:100920008A6001688A68C36A1A4301E022F0405273
:100930008A6001688A6822F002028A6001688A6817
:10094000037E42EA43028A6090F820100029016881
:100950004A680FD042F400624A6001684A6822F493
:1009600060424A6001684A68174C436A04EB4333AB
:100970001A4301E022F400624A600168CA6A22F464
:100980007002CA620168CA6A838B104C04EB03537D
:100990001A43CA6201688A6822F400728A60016898
:1009A0008A6890F8303042EA43228A6001688A6897
:1009B00022F480628A6001688A68406942EA802085
:1009C000886010BD0023014000E0FFFF0000F0FF41
:1009D000FEE700002DE9F04F00242DED048B81B0DF
:1009E00002F0C4FC642000F0E1FD02222021AD48A9
:1009F00000F086FA012000F05DFBDFF8ACA287B2C0
:100A0000DAF800804FF49676012000F053FB641C66
:100A100085B2A4B2B54203D34FF6FF708442F3D33C
:100A2000DAF8009000EE107AF8EE400A00EE105A64
:100A3000B8EE401A80EE810A10EE100AFFF7D8FDDA
:100A400041EC100B03F0CCFA9FED981B51EC100B0E
:100A500053EC112BFFF7A6FC41EC180BA9EB080097
:100A6000FFF781FD53EC182BFFF70EFD9FED919BD7
:100A700053EC192BFFF796FCFFF7CDFD08EE100A9B
:100A80008E4918EE100ADFF820824FF0100908F1A5
:100A90006408884215DB0423502202212020CDF86F
:100AA000008002F02CFDDFED860A0422022388EE8E
:100AB000200A11460020CDF8009002F085FE81A2A8
:100AC000E7E002F007FC642000F070FD0222102134
:100AD000744800F015FA012000F0ECFADAF800B0E2
:100AE00087B24FF6FF7608E0012000F0E3FA641CBD
:100AF00085B2A4B2B5F5967F01D3B442F4D36A4867
:100B0000D0F800A000EE107AF8EE400A00EE105A7D
:100B1000B8EE401A80EE810A10EE100AFFF768FD69
:100B200041EC100B03F05CFA9FED671B51EC100BCE
:100B300053EC112BFFF736FC41EC180BAAEB0B0022
:100B4000FFF711FD53EC182BFFF79EFC53EC192B0C
:100B5000FFF728FCFFF75FFD08EE100A5C4918EE6E
:100B6000100A884213DB0423502202212020CDF8F2
:100B7000008002F0C4FC04220223B0EE480A1146B1
:100B80000020CDF8009002F01FFE52A281E002F09A
:100B90007BFB642000F00AFD02221102414800F0B4
:100BA000AFF9012000F086FADFF8FCB087B2DBF87D
:100BB00000A008E0012000F07DFA641C85B2A4B218
:100BC000B5F5967F01D3B442F4D3DBF8004040F290
:100BD0002620874222D808220221002002F050FD60
:100BE00009220221102002F04BFD0A2202212020BE
:100BF00002F046FD0B220221302002F041FD0C22C2
:100C00000221402002F03CFD01B00D22BDEC048B1E
:100C100002215020BDE8F04F02F032BD00EE107A04
:100C2000F8EE400A00EE105AB8EE401A80EE810A43
:100C300010EE100AFFF7DCFC41EC100B03F0D0F9CA
:100C40009FED251B51EC100B53EC112BFFF7AAFB6A
:100C500041EC180BA4EB0A00FFF785FC53EC182BB2
:100C6000FFF712FCFFF7D7FC08EE100A042350220E
:100C700002212020CDF8008002F041FC0422022352
:100C8000B0EE480A11460020CDF8009002F09CFD1D
:100C900013A201B00421BDEC048B5020BDE8F04F3D
:100CA00002F079BD000402400000002000000000B6
:100CB000007077400000000000408F4000007A4440
:100CC00000007A447546000000000000004C0D4111
:100CD000000020416E4600001F85EB51B81EE53F25
:100CE00070460000704700003EB502F08BFB01A883
:100CF00000F042F9642000F059FCDDE901010D1A11
:100D0000102401231A4602212046009402F012FD0D
:100D100016480090042350220221202002F0EFFB0D
:100D20000222012311465020009402F003FD10A27C
:100D30000421002002F02FFD2846FFF714FC9FED50
:100D40000D1B53EC112BFFF79FFBFFF764FC00EE2C
:100D5000100A0223012204212020009402F034FD15
:100D600006A20421402002F016FD3EBD2401002011
:100D700056643D000000000000408F405600000017
:100D800010B52DED028B82B002F0F0FA642000F075
:100D90000DFC012000F04AF9FFF7E5FB9FED1C1B5D
:100DA00053EC112BFFF770FBFFF735FC102408EE16
:100DB000100A0222012311462046009402F0BAFCD8
:100DC00015480090042350220221202002F097FBB6
:100DD00001231A4602215020009402F0ABFC0FA21E
:100DE0000421002002F0D7FC02230122B0EE480AC1
:100DF00004212020009402F0E7FC02B00421BDECA5
:100E0000028B07A2BDE81040402002F0C4BC0000E5
:100E10000000000000408F402401002056643D0087
:100E2000560000004FF4805000F00ABC7CB502F080
:100E300077FA4FF49675284600F0B8FB684600F044
:100E40009BF8019840F6B244A04212D3009846287D
:100E50000FD802F08BFA284600F0A8FB684600F095
:100E60008BF80098A04202D3019832282FD9052090
:100E70007CBD02F0C7FA4FF4FA7000F097FB6846A9
:100E800000F07AF80198A04223D30098322820D8A5
:100E900002F092FA284600F089FB02F067FA64201B
:100EA00000F084FB02222021134800F029F80120E1
:100EB00000F000F90446012000F078FB012000F06A
:100EC000F9F8211A0A2914D3001B0A2811D3022089
:100ED0007CBD02F04BFA284600F068FB684600F043
:100EE0004BF80098A04204D30198322801D804207E
:100EF0007CBD01207CBD00000004024072B6FEE70C
:100F000070B586B00C460646154614216846FFF7B4
:100F100097F900230120012D0ED0022D17D0032DAB
:100F200023D0042D06D1CDE9004369460293304613
:100F300000F092FB06B070BD0094CDE90103694654
:100F40003046039300F088FBA1B2012209E000942F
:100F5000CDE9010369463046039300F07DFBA1B261
:100F60000022304600F06DFCE4E703200094CDE958
:100F700001036946DBE70000F0B507462DED048B61
:100F800081B0002005466E4600900024224800F003
:100F90002DFA0A21204800F0D3F938B91E4800F094
:100FA00071F936F81410084426F81400641C022C59
:100FB000ECDB194800F080FA6D1C052DE5DBBDF86F
:100FC000000040F6E4414843FFF7CDFA9FED138B54
:100FD00053EC182BFFF7E6F99FED129B53EC192BFE
:100FE000FFF752FAFFF7EBFA3860BDF8020040F65F
:100FF000E4414843FFF7B7FA53EC182BFFF7D2F957
:1010000053EC192BFFF740FAFFF7D9FA786001B0DB
:10101000BDEC048BF0BD0000980100200000000032
:101020000000303F0000000000001440F8B5074603
:10103000002006466D4600900024194800F0D6F9BD
:101040000A21174800F07CF938B9154800F01AF960
:1010500035F81410084425F81400641C022CECDB4D
:101060000F4800F029FA761C052EE5DB05EB47005A
:1010700040F6E44130F8020C4843FFF774FA9FED64
:10108000091B53EC112BFFF78DF99FED081B53EC57
:10109000112BFFF7F9F9FFF773FA80B2F8BD0000E2
:1010A00098010020000000000000303F0000000018
:1010B00000001440F8B50646002004466D46009036
:1010C000144800F093F90A21124800F039F938B9B0
:1010D000104800F0D7F835F81410084425F814002B
:1010E000641C022CECDB0B4800F0E6F905EB460033
:1010F00040F6E44130F8020C4843FFF734FA9FED24
:10110000061B53EC112BFFF74DF9FFF739FA80B2AC
:10111000F8BD000098010020000000000000303FF2
:1011200078B50024009490F83C20012A19D00122BF
:1011300080F83C200A6807230568092A13D9EE685D
:101140000A3A02EB420293409E43EE600B788A68B3
:101150000A3B03EB43039A400368DD682A43DA60E5
:1011600010E0022078BD2E6902EB420293409E43BC
:101170002E610B788A6803EB43039A4003681D696C
:101180002A431A614A681F23072A13D205686E6B27
:10119000521E02EB820293409E436E630A8893B212
:1011A0000A79521E02EB820293400268556B2B4370
:1011B000536327E005680D2A12D22E6BD21F02EB73
:1011C000820293409E432E630B790A88DB1F92B202
:1011D00003EB83039A4003681D6B2A431A6311E0F3
:1011E000EE6A0D3A02EB820293409E43EE620B7967
:1011F0000A880D3B92B203EB83039A400368DD6AD1
:101200002A43DA621B4B0568194A9D420AD10D68D0
:10121000122D07D1556825F400055560556845F431
:101220008005556005689D421DD1134D0B68AB428A
:1012300001D0112B17D1536823F4800353605368F6
:1012400043F4000353600968A9420CD10B490C4ACE
:101250000968B1FBF2F101EB8101490000E0491E90
:1012600000910029FBD180F83C40002078BD0000AF
:1012700000230140002001401200001090010020D6
:1012800040420F000068C06C704770B504004FF01A
:10129000000503D0206C002610B107E0012070BDCE
:1012A000204600F01DF8666484F83C60206CC0069F
:1012B00010D4206C20F4885040F0020020642046B6
:1012C000FFF7F2FA6664206C20F0020040F00100A3
:1012D000206400E0012584F83C60284670BD0000D1
:1012E00010B586B0044614216846FEF7A9FF1149DF
:1012F000206888421CD110480021026842F48072A4
:101300000260006800F4807005900B481438026891
:1013100042F001020260006800F001000590062022
:1013200000900320CDE901016946044800F094F9DA
:1013300006B010BD002001404438024000000240C9
:101340002DE9F041044600680D4681684FF0000722
:1013500049050BD58068C00508D5206C40F02000F9
:10136000206484F83C700120BDE8F08100F06EFA42
:10137000064613E0681C11D025B100F067FA801B07
:10138000A8420BD920680068800707D4206C40F081
:101390000400206484F83C700320E5E720680068BE
:1013A0008007E7D521686FF012000860206C40F4D8
:1013B000007020642068816811F0405F13D1217EA5
:1013C00089B9C16A11F4700F02D0806840050AD44F
:1013D000206C20F480702064206CC00403D4206C46
:1013E00040F0010020640020BEE7000018B5002195
:1013F000009190F83C20012A07D0012280F83C207F
:1014000002689368DB0702D011E0022018BD9368E0
:1014100043F001039360244A244B1268B2FBF3F2B9
:1014200002EB420200E0521E0092002AFBD1026849
:101430009368DB072ED0036C40F20164A34343F4AE
:101440008073036453685B0505D5036C23F4005374
:1014500043F480530364036CDB0404D5436C23F032
:101460000603436400E0416480F83C1010496FF0CB
:101470002203136049680068C90602D00D498842FA
:1014800010D1816811F0405F0CD1816841F080413A
:10149000816007E0016C41F010010164416C41F092
:1014A00001014164002018BD9001002040420F005E
:1014B000002301400020014090F83C1001290CD08D
:1014C000012180F83C1001688A6822F001028A60DC
:1014D00001688968C90702D007E002207047016CE3
:1014E00021F4885141F001010164002180F83C1091
:1014F000084670472DE9F0410446876D00F0A6F9D3
:10150000064694F835000025022806D08020606544
:1015100084F834500120BDE8F0812068016821F092
:10152000160101602068416921F080014161206C51
:1015300008B9A06C20B12068016821F008010160A1
:101540002068016821F0010101600CE000F07EF9E3
:10155000801B052807D920206065032084F835000A
:1015600084F83450D7E720680068C007EED194F8BB
:101570005C103F208840B860012084F8350084F872
:1015800034500020C7E790F83510022903D080219D
:10159000416501207047052180F835100068016819
:1015A00021F00101016000207047000070B5044681
:1015B00000F04CF90546601C02D004480078044451
:1015C00000F044F9401BA042FAD370BD8401002012
:1015D00008B50A20FFF7EAFF4FF48051164800F0E3
:1015E0002BF9002826D101F06CFFFFF71FFC06281D
:1015F00020D2DFE800F01F03070B171BBDE80840EF
:1016000002F0D4B9BDE80840FFF7E4B90B480090F8
:10161000042350220221202001F071FFBDE8084080
:1016200001F02EBCBDE80840FFF75EBBBDE80840F6
:10163000FFF7A6BB08BD000000040240C400002064
:10164000044910B50A68024202D00860FFF7C0FFE3
:1016500010BD0000143C01402DE9F84FDFF8B8A19F
:101660000022012403254FF00F090AF1040BAAF10F
:10167000040E00BF0B6804FA02F63340B34273D184
:101680000F7907F00307012F01D0022F16D18768C9
:101690004FEA420805FA08FC27EA0C07D1F80CC00B
:1016A0000CFA08FC4CEA070CC0F808C04768B743BE
:1016B0000E79C6F3001696403E4346600E79F64317
:1016C000B6070DD0C768560005FA06FC27EA0C07D6
:1016D000D1F808C00CFA06FC4CEA070CC0F80CC0A4
:1016E0000E7906F00306022E10D1D60800EB86080C
:1016F000D8F8206057074FEAD76C09FA0CF7BE43B9
:101700000F6907FA0CF73743C8F8207006684FEAEC
:10171000420C05FA0CF7BE430F7907F0030707FAEE
:101720000CF7374307604E6816F4403F6DD03B4ED0
:10173000376847F480473760366822F0030706F4BD
:1017400080460096364E07EB060CDCF808689707D3
:101750003F0F09FA07F826EA0806DFF8C880404577
:1017600003D14FF000081EE04FE0DFF8BC80404599
:1017700002D14FF0010816E0DFF8B080404502D1F9
:101780004FF002080FE0DFF8A880404502D14FF08B
:10179000030808E0DFF89C80404502D14FF00408C0
:1017A00001E04FF0070808FA07F848EA0608CCF805
:1017B0000888DAF800605746D1F804C09E435FEA13
:1017C000CC2C00D51E433E60DBF800605F46D1F8AC
:1017D00004C09E435FEA8C2C00D51E433E60DEF8B9
:1017E00000607746D1F804C09E435FEA8C3C00D588
:1017F0001E433E60084F083F3E68D1F804C09E4338
:101800005FEACC3C00D51E433E60521C102AFFF418
:1018100031AFBDE8F88F0000083C01404438024079
:101820000030014000000240000402400008024075
:10183000000C0240001002400069084000D0012066
:1018400070470AB1816170470904FBE7014880686D
:10185000704700008401002002488168027811442A
:1018600081607047840100200B4810B5016841F485
:1018700000710160016841F480610160016841F418
:1018800080710160032000F06FF80D2000F006F871
:1018900000F024F8002010BD003C024070B50D4D52
:1018A00004464FF47A712878B1FBF0F00A490968D0
:1018B000B1FBF0F000F02FFF48B9102C07D2002246
:1018C0002146501E00F030F800206C6070BD0120F1
:1018D00070BD000084010020900100200A4808B576
:1018E000016841F480410160006800F4804000908C
:1018F0000548001F016841F080510160006800F058
:101900008050009008BD000044380240002809DBE8
:1019100000F01F02012191404009800000F1E02009
:10192000C0F8001170470000F0B40E4B1B680C4665
:10193000C3F30223C3F10705042D00D90425191DA3
:10194000072901D2002300E0DB1E012606FA05F17B
:10195000491E214099409E40761E16403143F0BCFE
:1019600002F02BBB0CED00E0064900F0070208680E
:101970004FF6FF03184040EA0220034A1043086074
:10198000704700000CED00E00000FA052DE9F84377
:10199000044600684FF00109C1074FF0000601D16D
:1019A000400729D5DFF82081C8F86860FFF74EFFAF
:1019B0000746464D05E000BFFFF748FFC01B022861
:1019C00059D828680001F7D4A068217B800140EA3B
:1019D0000170616808433D4984310860C8F8689027
:1019E000FFF734FF074604E0FFF730FFC01B022873
:1019F00041D828680001F7D52078800752D53348B0
:101A00004030016841F0805101600068304D00F0C5
:101A100080500090286840F480702860FFF716FF1F
:101A2000074604E0FFF712FFC01B022823D82868EE
:101A3000C005F7D5254D7035286810F4407020D0CA
:101A4000218A01F4407181421BD02868214920F489
:101A50004070C1F800900E6028602868C00710D060
:101A6000FFF7F4FE064641F2883707E0FFF7EEFE87
:101A7000801BB84202D90320BDE8F883286880079C
:101A8000F4D521691148C1F301220830032A12D08C
:101A9000016821F4F81101602868218AC1F30B0163
:101AA000084328602078000703D50B49207DC1F842
:101AB000E0010020E0E70268084B22F4F812194028
:101AC0000A430260E8E70000000047420038024095
:101AD00000700040400E474200104742FFFCFF0FDD
:101AE0002DE9F0470E46050065D0DFF81481D8F8DF
:101AF0000000F7B200F00700B04207D288F800708B
:101B0000D8F8000000F00700B04254D128683D4CDE
:101B1000810712D5400703D5206840F4E0502060CB
:101B20002878000703D5206840F4604020602068D2
:101B3000A96820F0F000084320602878C0072DD065
:101B4000304968680839012812D0022813D00328C8
:101B500011D00968890700292DDA216821F00301D5
:101B600001432160FFF772FE814641F2883A0EE0A0
:101B700009688903EFE709688901ECE7FFF766FE6A
:101B8000A0EB0901514502D90320BDE8F087206888
:101B9000696800F00C00B0EB810FEFD1D8F80010AD
:101BA000404601F00701B14207D90770006800F014
:101BB0000700B04201D00120E7E72878400705D5AB
:101BC0002068E96820F4E050084320602878000786
:101BD00006D52068296920F4604040EAC1002060F1
:101BE00000F038F82168084AC1F30311515CC8407D
:101BF0000649086006480068FFF750FE0020C4E769
:101C0000003C02400838024070510008900100205A
:101C1000880100200448054900680968044AC1F3A6
:101C20008221515CC8407047900100200838024072
:101C3000805100080448054900680968044AC1F356
:101C40004231515CC8407047900100200838024082
:101C500080510008154810B5006810F00C021448B7
:101C600013D01449042A0FD0082A0ED10F4C241F78
:101C70002268236802F03F025B0207D52068C0F3A8
:101C80008810A0FB010106E0084610BD2168C1F3E1
:101C90008811A1FB00010023FEF79AFA2168C1F325
:101CA0000141491C4900B0FBF1F010BD0838024069
:101CB0000024F40040787D012DE9F84F04006ED037
:101CC0002078DFF84C93C007A9F104054AD009F148
:101CD00004000168C1F38101012908D00068C0F344
:101CE000810002280AD1D9F80000400206D52868F0
:101CF000800337D560680028E1D033E06068B0F534
:101D0000803F10D0B0F5A02F286810D020F480308C
:101D10002860286820F4802028606068A8B1FFF758
:101D200095FD06460DE0286840F48030F4E740F465
:101D300080202860F7E700BFFFF788FD801B64283C
:101D400073D828688003F7D50CE0FFF77FFD0646BF
:101D500005E000BFFFF77AFD801B6428F0D82868F3
:101D60008003F7D42078DFF8AC8280074FF0000AB8
:101D70003ED5A748001D016811F00C0F08D000687F
:101D8000C0F3810002280BD1D9F80000400207D42B
:101D90002868800716D5E068012800D112E033E1F9
:101DA000E068B8B10120C8F80000FFF74FFD064613
:101DB00005E000BFFFF74AFD801B0228C0D8286855
:101DC0008007F7D52868216920F0F80040EAC100B3
:101DD00028600DE0C8F800A0FFF738FD064604E0D3
:101DE000FFF734FD801B02281FD828688007F7D42E
:101DF0002078000722D5864F87486169703771B116
:101E000001210160FFF722FD064604E0FFF71EFDF9
:101E1000801B022809D838688007F7D50EE0C0F883
:101E200000A0FFF713FD064605E082E0FFF70EFD78
:101E3000801B02287DD838688007F7D420784007B7
:101E400068D5DFF8CCB100270BF13C0BDBF80000C4
:101E5000C0000BD4DBF8001041F08051CBF800102B
:101E6000DBF80000012700F0805000906B4E3068D6
:101E7000C00510D4306840F480703060FFF7E6FC95
:101E8000009005E0FFF7E2FC0099401A022850D8C4
:101E90003068C005F6D55E4EA0686C3601280FD0BC
:101EA0000528306810D020F001003060306820F044
:101EB00004003060A068B8B1FFF7C8FC00900FE0E4
:101EC000306840F00100F4E740F004003060F7E7CC
:101ED000FFF7BCFC0099411A41F28830814266D874
:101EE00030688007F4D50EE0FFF7B0FC009007E003
:101EF000FFF7ACFC0099411A41F28830814256D874
:101F000030688007F4D42FB1DBF8001021F0805145
:101F1000CBF80010A069C8B33D49091D0968C1F399
:101F2000810102294AD00228504607D0C8F8600033
:101F300000E03CE0FFF78AFC04463BE04746C8F877
:101F40006000FFF783FC064605E000BFFFF77EFC5C
:101F5000801B02282BD828688001F7D4D4E9070118
:101F60000843A16A2E4A490802EB0141626A41EA2C
:101F70008211084394F82C1040EA0161C9F800105E
:101F800001203866FFF762FC044606E03EE000BF31
:101F9000FFF75CFC001B022809D828688001F7D5F0
:101FA00034E000BFFFF752FC001B022802D90320D7
:101FB000BDE8F88F28688001F4D427E00128F7D025
:101FC000D9F80000E26900F4800191421CD1226A34
:101FD00000F03F01914217D147F6C071626A01409B
:101FE000B1EB821F10D1A26A4FF0FF3300F44031F1
:101FF00003EB5202B1EB024F06D194F82C1000F023
:102000007060B0EB016F01D00120D1E70020CFE775
:102010000438024000004742800E474200700040F2
:102020000000FFFF7047704710B5044600688168E4
:10203000C9040CD5C068C00509D52046FFF7F3FFD9
:102040002068C16801F0800161F4C071C16020683E
:10205000816889040CD5C068800509D52046FFF742
:10206000E1FF2068C16801F0800161F42071C16066
:1020700003494FF4003008600120607710BD000074
:10208000143C014010B5040002D0607F10B106E09E
:10209000012010BD00202077204600F039F80220F2
:1020A00060772168CA204862216853204862204630
:1020B00001F042FC30BB20688168144A1140816005
:1020C0002168886862681043D4E904231A431043E6
:1020D00088602168E068086120680169228941EA16
:1020E00002410161204601F04BFC58B921680A6C9D
:1020F00022F480220A6421680A6CA3691A430A64E4
:10210000012161772268FF21516210BDBFFF8FFF5F
:1021100010B586B0044618216846FEF791F80D49BF
:102120002068884214D10220009000020490684682
:10213000FFF72CFC08B1FEF7E1FE0749012008601B
:10214000002211462920FFF7EFFB2920FFF7DEFBD5
:1021500006B010BD002800403C0E47422DE9F84370
:10216000644E03464FF4FA4730680C46B0FBF7F074
:10217000791148430090187F012877D04FF001096A
:1021800083F81C900220587718680025002A806880
:102190004FEA40606CD0002800DBE570A078227820
:1021A00094F803C040EA02406278E169120242EA10
:1021B0008C52104394F8202040EA02600843616981
:1021C000A26908436168D3F800C01143CA22CCF861
:1021D0002420D3F800C05322CCF82420626AFF24C4
:1021E000B2F5807F1A684FF0030C5CD0D2F80880FB
:1021F00028F40078C2F808801A68D2F80C8008F039
:10220000800868F42078C2F80C8032684FF47A763F
:10221000B2FBF7F2724300921A68009E771E009795
:1022200061D3D668B607F8D510621868816418685B
:10223000816841F4007181601868816841F400513F
:1022400081602D48016841F4003101602A4808305E
:10225000016841F4003101601868446283F81D9000
:102260001D770020BDE8F88300E001E00220F9E7D7
:10227000002800DBE570207801F052FB0204607852
:1022800001F04EFB42EA0022A07801F049FB024334
:10229000E07842EA805294F8200001F041FB42EAE3
:1022A0000060E1698AE7966826F4807696601A688D
:1022B000D66806F0800666F4C076D6601A68009E7E
:1022C000771E00970FD3D668F607F8D0D06118684C
:1022D00041641868816841F4807181601868816880
:1022E00041F48051ACE7546283F81DC01D77032090
:1022F000B8E7000090010020003C014070B50446A2
:10230000007F0B46012819D001262677022060772E
:10231000B2B19878D97840EA014558781978000226
:1023200040EA413005432168CA20486221685320B1
:102330004862204601F000FBD0B122E0022070BDCF
:102340005878C10603D500F0EF000A305870D878ED
:1023500001F0E6FA0204587801F0E2FA42EA0022BB
:10236000987801F0DDFA0243187842EA4035DAE75E
:102370000748054020684560204601F001FB00B990
:1023800066772268FF2151620021217770BD00002D
:102390003FFFFF002DE9F0410446007F0D46012874
:1023A00023D04FF0010884F81C8002206077206859
:1023B000002780684FEA4060D2B1002800DBEF7050
:1023C000A878297840EA01466878E978000240EA6E
:1023D000815006432168CA20486221685320486220
:1023E000204601F0A9FAB8B12CE00220BDE8F08146
:1023F000002800DBEF70287801F092FA0204687878
:1024000001F08EFA42EA0022A87801F089FA02432C
:10241000E87842EA8056DDE70D480640206806600D
:102420002068816821F480218160D5E90301084397
:1024300021688A6810438860204601F0A1FA08B933
:1024400084F81D802268FF2151622777CEE70000C3
:102450007F7F7F0070B504460068C16821F0A0014D
:10246000C160FFF7F3F905464FF47A7607E000BF45
:10247000FFF7ECF9401BB04201D9032070BD206882
:10248000C0688006F4D5002070BD70B5040009D086
:10249000606A002540B125616561A56294F851002C
:1024A00040B10CE0012070BD6068B0F5827FF4D0CF
:1024B000E561F2E784F85050204600F045F802202C
:1024C00084F851002068016821F040010160A08873
:1024D000218900F4827001F404410843A18901F4C8
:1024E00000610843217C01F002010843217D01F0D5
:1024F00001010843218B01F400710843217F01F0A1
:102500003801084394F8201001F080010843218D20
:1025100001F40051084321680860A069042101EA20
:10252000104094F8241001F010010843216848601D
:102530002068C16921F40061C1616565012084F8EA
:102540005100002070BD000010B586B00446142173
:102550006846FDF775FE13492068884220D112486D
:102560000021026842F480520260006800F480504A
:1025700005900D481438026842F0010202600068BC
:1025800000F001000590A02000900220CDE901019B
:10259000032003900520049069460448FFF75CF887
:1025A00006B010BD00300140443802400000024037
:1025B0002DE9F84F044690F8500000271D461646B6
:1025C000894601280DD04FF0010B84F850B0FFF779
:1025D0003DF9804694F85100BA46012804D00227FC
:1025E00093E00220BDE8F88FB9F1000F73D0002E00
:1025F00071D0032084F85100C4F854A0C4F830907E
:10260000A686E686C4F838A0A4F83CA0A4F83EA0AC
:10261000C4F844A0C4F840A0A068B0F5004F09D1A8
:102620002068016821F0400101602068016841F4E0
:102630008041016020680168490603D4016841F0C7
:1026400040010160E068B0F5006F606803D030B30E
:10265000012E24D041E008B1012E1CD1206B21684D
:102660000088C86006E020688168890709D5216B69
:102670000988C160206B801C2063E08E401EE086CC
:1026800009E0FFF7E3F8A0EB0800A84202D3681CBA
:1026900001D031E07DB3E08E0028E4D120E0206B52
:1026A00021680078087306E020688168890709D5E9
:1026B000216B09780173206B401C2063E08E401E63
:1026C000E0860AE0FFF7C2F8A0EB0800A84203D3B7
:1026D000681C02D010E017E06DB1E08E0028E3D155
:1026E00042462946204601F0E5F908B12020606500
:1026F000A06818B106E0FFE7032706E02068C1687C
:1027000080680090606D00B1012784F851B084F8B2
:1027100050A0384666E710B5401EB0F1807F01D367
:10272000012010BD4FF0E02460610F21601701F01F
:1027300044FC0020A06107202061002010BD7047EC
:102740007047000070B590F83C20012A2CD001247D
:1027500080F83C40022280F83D2003685A689D685A
:1027600022F070060A6832435A60104B02689A429F
:102770000ED0B2F1804F0BD00D4B9A4208D00D4BCA
:102780009A4205D00C4B9A4202D00C4B9A4204D18B
:10279000496825F080031943916080F83D4000218D
:1027A00080F83C10084670BD022070BD000001405A
:1027B0000004004000080040000C004000400140C0
:1027C00010B5040003D094F83D0010B107E00120DB
:1027D00010BD002084F83C00204600F01FF80220C5
:1027E00084F83D00211D206801F04AFA012084F898
:1027F000460084F83E0084F83F0084F8400084F8E6
:10280000410084F8420084F8430084F8440084F8CE
:10281000450084F83D00002010BD000008B50068A8
:102820000B49884212D10B48016841F00101016057
:102830000068002200F00100009011461920FFF707
:1028400073F8BDE808401920FFF760B808BD000024
:10285000000001404438024090F83D10012901D0A9
:1028600001207047022180F83D100168CA6842F0DB
:102870000102CA6000680E4988420ED0B0F1804F54
:102880000BD00C49884208D00B49884205D00B492F
:10289000884202D00A49884204D1816801F00701C8
:1028A000062903D0016841F0010101600020704752
:1028B000000001400004004000080040000C0040FF
:1028C0000040014070B5044690F83C000025012806
:1028D00017D0012684F83C60022084F83D0020686F
:1028E000826822F0770222F47F42826008685028D2
:1028F00038D00DDC20284FD005DC90B3102811D142
:102900004AE0022070BD302846D040280AD13BE082
:1029100060282FD070280DD0B0F5805F03D0B0F5BF
:10292000005F12D0012584F83D60002084F83C004F
:10293000284670BDCB68D1E90121206801F0ECF98F
:102940002068816841F0770109E0CB68D1E9012175
:10295000206801F0E1F92068816841F480418160DC
:10296000E1E719E0CA684968206801F0E7F95021F9
:10297000206806E0CA684968206801F0F0F9602123
:10298000206801F0D3F9CEE7CA684968206801F0F1
:10299000D5F940212068F4E7226801461046F0E7A7
:1029A000704770B50446006801694FF00005C943DF
:1029B000890715D4C168C943890711D4E91E01618B
:1029C00001202077206880698007204602D0FFF729
:1029D000E7FF04E000F098F8204600F096F825772D
:1029E00020680169C943490717D4C168C943490729
:1029F00013D46FF004010161022020772068806900
:102A000010F4407F204602D0FFF7CAFF04E000F038
:102A10007BF8204600F079F8257720680169C943E2
:102A2000090716D4C168C943090712D46FF0080119
:102A30000161042020772068C0698007204602D009
:102A4000FFF7AEFF04E000F05FF8204600F05DF80D
:102A5000257720680169C943C90617D4C168C943ED
:102A6000C90613D46FF01001016108202077206897
:102A7000C06910F4407F204602D0FFF791FF04E0C8
:102A800000F042F8204600F040F825772068016900
:102A9000C943C90708D1C168C943C90704D1891E00
:102AA0000161204600F032F820680169C943090637
:102AB00009D4C168C943090605D46FF080010161DA
:102AC0002046FFF73CFE20680169C943490609D446
:102AD000C168C943490605D46FF040010161204631
:102AE00000F022F820680169C94389060BD4C16847
:102AF000C943890607D46FF0200101612046BDE873
:102B00007040FFF71DBE70BD7047704700680449F4
:102B1000884203D103480168491C016070470000E6
:102B2000000001400000002070477047704700001F
:102B3000F8B5016804460868CA684B6910F00F0FC1
:102B40004FF0000559D003F0010602F490773743A7
:102B500065D0C10705D0D10503D5216C41F0010135
:102B60002164410705D5D90703D0216C41F002014A
:102B70002164810705D5D90703D0216C41F00401F8
:102B80002164010707D502F02001314303D0216CF5
:102B900041F008012164216C00293AD0800604D557
:102BA000900602D5204601F01BF920684069216C8F
:102BB000C0F38010090700D460B3204601F0E9F8A3
:102BC00020684069400621D52068143050E8001F75
:102BD00021F0400140E80012002AF5D1A06BA8B115
:102BE0006C490165A06BFEF7CEFC002811D0A06BEC
:102BF000016D01B0BDE8F040084783060FD593068C
:102C00000DD52046BDE8F84001F0EAB82046FFF7B0
:102C10008DFFF8BD2046FFF789FF2564F8BD266BC0
:102C20002023012E79D1C60677D5D60675D508683A
:102C3000486800904869400640D5A16B0868406824
:102C40000004000CEAD0A28D8242E7D9E085C86971
:102C5000B0F5807F2DD020680C3050E8001F21F4A3
:102C6000807140E80012002AF5D12068143050E845
:102C7000001F21F0010140E80012002AF5D1206870
:102C8000143050E8001F21F0400140E80012002AF3
:102C9000F5D184F83E30256320680C3050E8001FE1
:102CA00021F0100140E80012002AF5D1A06BFEF7D8
:102CB00021FCA08DE18D401A81B229E0A08DE18D2B
:102CC000401A81B2E08D0028A8D00029A6D0206843
:102CD0000C3050E8002F22F4907240E80026002EBD
:102CE000F5D12068143050E8002F22F0010240E8AE
:102CF0000026002EF5D184F83E30256320680C3084
:102D000050E8002F22F0100240E80023002BF5D1FC
:102D10002046FFF70AFFF8BDFFE705062BD515068D
:102D200029D594F83D002128F5D1A068B0F5805F41
:102D300001D12069B0B1206A411C2162216800786C
:102D40004860E08C401E0004000CE084E3D1206861
:102D5000C16821F08001C1602068C16841F0400174
:102D6000C160D8E7206A0088C0F308004860206A84
:102D7000801C2062E5E74006CDD55006CBD5CA6859
:102D8000204622F04002CA6084F83D3000F075F819
:102D9000C1E70000833D000870B5040004D094F83A
:102DA0003D00002510B106E0012070BD84F83C50C4
:102DB000204600F023F8242084F83D002068C168F4
:102DC00021F40051C160204601F06AF820680169D1
:102DD00021F4904101612068416921F02A0141619B
:102DE0002068C16841F40051C1602564202084F846
:102DF0003D0084F83E00002070BD000010B586B094
:102E0000044614216846FDF71BFA184920688842D9
:102E100029D117480021026842F0100202600068C0
:102E200000F01000059012481438026842F00102C8
:102E30000260006800F0010005904FF4C06000904F
:102E40000220CDE901010320039007200490694688
:102E50000848FEF701FC002211462520FEF764FD1C
:102E60002520FEF753FD06B010BD00000010014004
:102E7000443802400000024070477047FEE70000FF
:102E800000B52DED028B83B000F096FA6420FEF7BA
:102E90008DFB012220212548FEF732F80120FEF7A4
:102EA00009F90120FEF706F96420FEF77FFB00F028
:102EB000A9FA0520FEF77AFB01A8FEF75DF89DED63
:102EC000020AF8EE400A9DED010AB8EE401A80EEC3
:102ED000810A10EE100AFDF78BFB9FED151B53ECDA
:102EE000112BFDF759FA9FED141B53EC112BFDF735
:102EF00059FAFDF790FB08EE100A11A206210020F6
:102F000000F049FC1020022300901A46B0EE480A57
:102F10000621202000F058FC07220621502000F056
:102F2000AFFB03B0BDEC028B00BD0000000402400B
:102F3000000000000000F03F00000000002086407C
:102F40004553523D000000007FB500251A4800950A
:102F50000195029517490395016001244FF48031D2
:102F60000461C0E90115057680F8204013494462E8
:102F7000C0E90A150226C661C56080F83050446178
:102F8000FEF783F908B1FDF7B9FF009469460A48D6
:102F9000CDE90145FEF7C4F808B1FDF7AFFF009693
:102FA000694605480196FEF7BBF8002801D0FDF7F9
:102FB000A5FF7FBD00200140980100200100000F07
:102FC0002DE9F04387B014216846FDF739F94148EF
:102FD0000024016841F004010160016801F004016E
:102FE0000591016841F080010160016801F08001F4
:102FF0000591016841F001010160016801F00101E2
:103000000591016841F0020101600068324F00F053
:1030100002004FF400550590002229463846FEF77D
:1030200010FCDFF8B880002210214046FEF709FCB2
:10303000DFF8AC90002203214846FEF702FC009521
:103040000125CDE90254694638460195FEF704FB97
:103050004FF440400326CDE9000669460294384605
:10306000FEF7FAFA49F64910CDE9000669460294DE
:103070004046FEF7F1FA10200090CDE90154694670
:1030800040460394FEF7E8FA0096CDE901546946FC
:1030900048460394FEF7E0FA4EF2FC70CDE90006D4
:1030A000694602944846FEF7D7FA280300904FF489
:1030B0000410CDE9010569464846FEF7CDFA002225
:1030C0000E212820FEF730FC2820FEF71FFC07B059
:1030D000BDE8F083303802400008024000000240A2
:1030E0000004024030B591B014210AA8FDF7A8F8F9
:1030F0000024282168460F94FDF7A2F827482649A6
:10310000C0E900147F218160FF21C0E903144461FC
:103110008461FEF7B7FF08B1FDF7F0FE8DF8284097
:103120008DF829408DF82A400D9401220AA91B48E8
:103130000E94FFF72FF908B1FDF7E0FE01258DF899
:103140003C508DF83D508DF83E508DF83F402A465A
:103150000FA91248FFF7D2F808B1FDF7CFFE8DF89E
:1031600000408DF8014004944FF480708DF80240C7
:103170000194039409900594069407948DF82050C7
:10318000012269460548FEF7E9FF002801D0FDF756
:10319000B5FE11B030BD000000280040E001002065
:1031A000104810B50E4901604FF482714160002152
:1031B0008160C1604FF400720161C0E905121822FC
:1031C000C0E90721416281620A21C162FFF75DF90E
:1031D000002803D0BDE81040FDF790BE10BD0000F0
:1031E000003001400002002010B586B000241748CE
:1031F000009401940294039404941349059401608B
:103200000921C0E90114C0E903148021C0E9054186
:10321000FFF7D6FA08B1FDF771FE4FF48050009029
:1032200069460A48FFF74EFB08B1FDF767FE0494B4
:1032300004A906480594FFF785FA002801D0FDF798
:103240005DFE06B010BD00000000014058020020E5
:103250000C4810B50A4901604FF4E131416000218A
:1032600081600C22C160C0E904128161C161FFF775
:1032700093FD002803D0BDE81040FDF73FBE10BD10
:1032800000100140A002002010B500F0E3F8104C3F
:10329000022240212046FDF733FE01225102204642
:1032A000FDF72EFE042208212046FDF729FE042208
:1032B00010212046FDF724FE042220212046FDF7A0
:1032C0001FFE20460422BDE810408021FDF718BEF5
:1032D0000004024010B500F0BDF8104C022240215D
:1032E0002046FDF70DFE012210212046FDF708FEC5
:1032F000042208212046FDF703FE04222021204657
:10330000FDF7FEFD042280212046FDF7F9FD204651
:103310000422BDE81040D101FDF7F2BD00040240D7
:1033200010B500F097F8104C012240212046FDF71F
:10333000E7FD022210212046FDF7E2FD04220821CC
:103340002046FDF7DDFD042220212046FDF7D8FDB3
:10335000042280212046FDF7D3FD20460422BDE84B
:1033600010409101FDF7CCBD0004024010B500F003
:1033700071F8104C022240212046FDF7C1FD0122C8
:1033800020212046FDF7BCFD042208212046FDF740
:10339000B7FD042210212046FDF7B2FD0422802152
:1033A0002046FDF7ADFD20460422BDE81040D101C6
:1033B000FDF7A6BD0004024010B500F04BF8104C1C
:1033C000022240212046FDF79BFD022220212046BB
:1033D000FDF796FD042208212046FDF791FD042209
:1033E00010212046FDF78CFD042280212046FDF7A8
:1033F00087FD20460422BDE81040D101FDF780BDC5
:103400000004024010B500F025F8104C01224021C4
:103410002046FDF775FD022220212046FDF770FDB4
:10342000042208212046FDF76BFD042210212046CE
:10343000FDF766FD042280212046FDF761FD204650
:103440000422BDE810409101FDF75ABD000402407E
:10345000FEE7000070B5184C032202212046FDF75C
:103460004FFD164D032208212846FDF749FD032292
:1034700010212846FDF744FD032220212846FDF7B0
:103480003FFD032204212046FDF73AFD032240219F
:103490002846FDF735FD032280212846FDF730FD43
:1034A0000322A1152846FDF72BFD032261152846AE
:1034B000BDE87040FDF724BD00000240000402405A
:1034C000FEE770B5002404F1B000C0B2002100F0A6
:1034D000F7F90021022000F0F3F90021102000F09C
:1034E000EFF900250121002000F0EAF96D1CEDB292
:1034F000802DF7D3641CE4B2082CE4D370BD2DE911
:10350000F04798461746824600260C46DDF8209084
:1035100011E02146504600F09DF8554607E019F8A5
:1035200006000121761C00F0CBF96D1CEDB2BD4206
:10353000F5D3641CE4B24445EBD3BDE8F08700004A
:1035400010B5434C002201212046FEF77AF9C8202D
:10355000FEF72CF8012211462046FEF772F90021F1
:10356000AE2000F0ADF90021022000F0A9F9002101
:10357000102000F0A5F90021402000F0A1F9002161
:10358000812000F09DF90021CF2000F099F9002161
:10359000A12000F095F90021C82000F091F9002148
:1035A000A62000F08DF90021A82000F089F9002163
:1035B0003F2000F085F90021D32000F081F900219F
:1035C000084600F07DF90021D52000F079F90021AE
:1035D000802000F075F90021D92000F071F9002158
:1035E000F12000F06DF90021DA2000F069F90021E6
:1035F000122000F065F90021DB2000F061F90021C4
:10360000402000F05DF90021202000F059F9002150
:10361000022000F055F900218D2000F051F9002121
:10362000142000F04DF90021A42000F049F90021F8
:10363000A62000F045F90021AF2000F041F900215B
:10364000AF2000F03DF9BDE81040FFF73ABF0000A1
:103650000004024010B50446B031C8B2002100F0A9
:103660002FF9641CC4F3031040F01000002100F097
:1036700027F904F00F00BDE81040002100F020B948
:103680002DE9F04115460E460746FFF7E3FF0F48C8
:10369000002400EB85150121285D00F011F9641C60
:1036A000E4B2102CF7D3761CF1B23846FFF7D2FF04
:1036B00000242819012190F8200000F001F9641C71
:1036C000E4B2102CF5D3BDE8F0810000B04B000847
:1036D0002DE9F041203A00240D468046D7B27F28DC
:1036E00003D900208D1C8046EDB22946FFF7B2FFBA
:1036F0000F4E00BF04EB07100121305C00F0E0F832
:10370000641CE4B2082CF5D36D1CE9B24046FFF707
:10371000A1FF002404EB071030440121007A00F0DF
:10372000CFF8641CE4B2082CF4D3BDE8F0810000AB
:10373000C04500082DE9F0478046002608981D4640
:1037400091468A463446470821E0281B401EC1B2F4
:103750000A2000F02DFFB9FBF0F00A21B0FBF1F2D6
:1037600001FB120026B9691E8C4201DA30B1012634
:103770003030C2B207FB0480C0B203E007FB048014
:10378000C0B220225146FFF7A3FF641CE4B2AC4252
:10379000DBD3BDE8F0872DE9F04117460E4604461D
:1037A00000250CE031462046FFF792FF0834E4B2D2
:1037B000782C02D90024B61CF6B26D1CEDB27A5DED
:1037C000002AEFD1BDE8F0812DE9FF5F4FF0000A3C
:1037D0002DED020B994616462DED028BB0EE408A78
:1037E0001299BDEEC80A0546544610EE108A4FF0F5
:1037F0000A0B4F0823E0301B401EC1B20A2000F024
:10380000D7FEB8FBF0F1B1FBFBF20BFB1210BAF1E3
:10381000000F05D1711E8C4202DA38B14FF0010A57
:103820003030C2B207FB0450C0B203E007FB0450C3
:10383000C0B220220599FFF74BFF641CE4B2B442EA
:10384000D9D307FB0650C0B22E220599FFF740FFDF
:1038500049460A2000F0ACFE00EE100A00246D1D5F
:10386000F8EE400A00EE108AB8EEC00A38EE400AC0
:1038700020EE800ABDEEC00A10EE108A18E000BFEC
:10388000A9EB0400401EC1B20A2000F091FEB8FB73
:10389000F0F1B1FBFBF20BFB1211A01907FB00507A
:1038A0003031CAB2C0B20599FFF712FF641CE4B20E
:1038B0004C45E5D3BDEC028B06B0BDE8F09F00009F
:1038C00073B5104C09B1012200E00022022120460C
:1038D000FDF7B7FF0C4D002210212846FDF7B1FF80
:1038E0004FF47A73012269460848FEF761FE01220F
:1038F00010212846FDF7A5FF012202212046FDF7F1
:10390000A0FF7CBD00040240000002400002002035
:10391000704700000148FEF787BB0000E00100206F
:10392000002103E0491C0A38C9B2C0B20A28F9D202
:10393000090740EA116070472DE9F041044600682C
:103940000025C168490618D4C16841F08001C160F2
:10395000FDF77CFF06464FF47A78042707E000BFA6
:10396000FDF774FF801B404501D96777012520686A
:10397000C068400601D4002DF2D02846BDE8F08191
:1039800070B5044600680025C16821F08001C1605F
:1039900020688068800606D42046FEF75BFD10B1E3
:1039A000042060770125284670BD000010B52DED7C
:1039B000048B84B0FFF726FD0520FDF7F7FD01A875
:1039C000FDF7DAFA9DED020AF8EE400A9DED010AD4
:1039D000B8EE401A80EE810A10EE100AFCF708FEDD
:1039E0009FED2C9B53EC192BFCF7D6FC9FED2B1B6A
:1039F00053EC112BFCF7D6FCFCF70DFE08EE100A79
:103A0000FFF78EFC0520FDF7D1FD01A8FDF7B4FA04
:103A10009DED020AF8EE400A9DED010AB8EE401A4B
:103A200080EE810A10EE100AFCF7E2FD53EC192B30
:103A3000FCF7B2FC9FED1B1B53EC112BFCF7B2FC07
:103A4000FCF79EFD044619480090042350220221F1
:103A50002020FFF754FD18EE100A154A102190425D
:103A6000009108DC01230722B0EE480A042100205F
:103A7000FFF7AAFE05E00723224604210020FFF7F6
:103A800059FE072204215020FFF7FAFD04B0BDECD7
:103A9000048B10BD000000000000F03F000000009B
:103AA0000020864000000000E0FD1C4104000020D2
:103AB00000606A4638B504461248134B0068B0FBF4
:103AC000F3F04FF47A73584300906068B0F5827F4A
:103AD0000DD10B46009200228021204600F016F8FE
:103AE00070B1606D40F020006065032038BD009823
:103AF00030B1401E009020688068C0430006F6D5B3
:103B0000002038BD9001002000366E012DE9F843F9
:103B10001E46914688460446089DFDF797FE401BC9
:103B2000351AFDF793FE074625480068C0F3CB30F1
:103B3000684338E0701C37D0FDF788FEC01BA842F0
:103B400003D215B1009860B32CE02068416821F0E1
:103B5000E00141606068B0F5827F0BD1A068B0F5EC
:103B6000004F02D0B0F5806F04D12068016821F0C9
:103B700040010160A06AB0F5005F09D120680168CA
:103B800021F4005101602068016841F40051016096
:103B9000012084F85100002084F850000320BDE883
:103BA000F8830025401E00902068816838EA0100F3
:103BB00004D000214945BDD10020F0E70121F9E7FB
:103BC000900100207047FDF747BE000030B593B06C
:103BD00030216846FCF734FB14210CA8FCF730FBBD
:103BE0001E480025016841F080510160006800F026
:103BF000805011901A48016841F44041016000680A
:103C0000022400F440401190092000904FF48030CD
:103C100001900120CDE90504800507901920089046
:103C2000C820CDE9090404200B906846FEF744F84B
:103C300008B172B6FEE70CA90F2081E831004FF4FD
:103C40008050CDE90F0503210CA8FDF749FF00289E
:103C500001D072B6FEE713B030BD0000403802401C
:103C6000007000400248016841F470010160704733
:103C700088ED00E00148FEF794BE000058020020E5
:103C8000F0B502681D4B1E4C9F031E4D1E4E984200
:103C900007D0B84205D0A04203D0A84201D0B0421C
:103CA00004D122F0700C4A6842EA0C02984210D00B
:103CB000B8420ED0A0420CD0A8420AD0B04208D0E0
:103CC000124CA04205D0124CA04202D0114CA0428E
:103CD00003D122F44074CA6822434C6922F0800266
:103CE000224302608A68C2620A688262984201D1F5
:103CF0000969016301214161F0BD0000000001403C
:103D00000004004000080040000C0040004001405A
:103D1000004401400048014010B5846842EA032293
:103D200024F47F440A432243826010BD826822F05B
:103D300070020A4342F007018160704710B5036AC0
:103D4000046A24F001040462846924F0F00444EA63
:103D5000021423F00A020A438461026210BD10B506
:103D6000036A23F0100303628369046A23F4704337
:103D700043EA023224F0A00343EA011182610162A6
:103D800010BD10B5806B0021C185C184FEF7CEFE49
:103D900010BD01680C3151E8002F22F4907241E807
:103DA0000023002BF5D10168143151E8002F22F0D7
:103DB000010241E80023002BF5D1016B012909D153
:103DC00001680C3151E8002F22F0100241E8002375
:103DD000002BF5D1202180F83E10002101637047AF
:103DE00008B590F83E10222901D0022008BD826853
:103DF0004FF480539A4201D1016921B1816A9A42FC
:103E00001BD04AB10AE00268816A5268C2F3080214
:103E10000A80816A891C08E0026972B102685268EE
:103E200002F07F020A70816A491C8162C18D491EBD
:103E30000904090CC18503D019E002685268F1E752
:103E40000168CA6822F02002CA600168CA6822F4C8
:103E50008072CA6001684A6922F001024A61202129
:103E600080F83E10016B012903D0FFF705F8002010
:103E700008BD0021016301680C3151E8002F22F0D8
:103E8000100241E80023002BF5D101680A68D20630
:103E900002D50A6849680091818DFEF746FEE6E783
:103EA00070B5044600680169E26821F4405111438D
:103EB00001612169A068E26908436169114308430F
:103EC0002168CA6849F20C639A430243CA602068B9
:103ED0004169A26921F4407111434161314920686F
:103EE000884202D03049884202D1FDF7A3FE01E0AA
:103EF000FDF790FEE2690023192164253226B2F510
:103F0000004F626828D0A0FB0101930F9200FCF7DC
:103F10005FF90146B0FBF5F06FF01802504301EB7A
:103F2000800006EB0010B0FBF5F000F0F002B1FBF2
:103F3000F5F002EB0012B1FBF5F06FF018035843F7
:103F400001EB800006EB0010B0FBF5F000F00F0075
:103F500021681044886070BDA0FB010192185B418C
:103F6000FCF736F90146B0FBF5F00201B1FBF5F0C4
:103F70006FF01803584301EB800006EBC000B0FB64
:103F8000F5F000F0F80002EB4002B1FBF5F0584309
:103F900001EB800006EBC000B0FBF5F000F007007D
:103FA000D6E7000000100140001401400148FEF770
:103FB000BFBD0000A0020020FEE70907090E00288F
:103FC00004DB00F1E02080F80014704700F00F00DF
:103FD00000F1E02080F8141D704700000000000090
:103FE00070B5D94B00242DED020B2DED108BDDE9C2
:103FF0001010984205DA20F000429A4201D809D107
:1040000041B19DED100BBDEC108B02B0BDE87040CE
:1040100000F05EBAB0F5801F26DA11430BD00028FD
:1040200013DA012000F080FABDEC108B02B0BDE87D
:10403000704000F059BA022000F076FA00F030FA31
:1040400051EC100B81F000419EE06FF035049FEDC4
:10405000C00B53EC102B9DED100B51EC100BFCF72B
:10406000A1F9CDE91001084604EB2051C0F3130477
:10407000B948A1F2FF31204400F4801080F07F6243
:1040800082F04052224301EB20559FEDB50B119277
:1040900053EC102B9DED100B51EC100BFCF77CF941
:1040A00041EC180BA01CC0F313009FEDAFDB9FED9C
:1040B000B0EBB14E7E4403286CD296ED000B51EC70
:1040C000180B53EC102BFCF799FB1DD1002D01BFF1
:1040D00096ED000BBDEC108B02B070BD2846FCF7CE
:1040E0007BFB41EC180B53EC1D2BFCF75BF941EC0F
:1040F000190B53EC1E2B51EC180BFCF753F953EC36
:10410000192BFCF7A8F83FE09FED9D0B51EC180B25
:1041100053EC102BFCF746F99FED9B1B53EC112B36
:10412000FCF73DF941EC190B53EC182B51EC180B33
:10413000FCF738F953EC192BFCF734F941EC190B67
:10414000002D04BF53EC192B51EC180B1AD0284644
:10415000FCF742FB41EC1A0B53EC1D2BFCF722F948
:1041600053EC192BFCF71BF953EC182BFCF714F943
:1041700041EC180B53EC1E2B51EC1A0BFCF712F907
:1041800053EC182BFCF708F9BDEC108B02B041EC96
:10419000100B70BD9FED7E0B51EC180B53EC102BE8
:1041A000FCF759F841EC100B51EC180B53EC102BA9
:1041B000FCF76AF941EC190B2846FCF70DFB41ECC2
:1041C0001B0B53EC192B51EC190BFCF7EBF841ECE2
:1041D0001A0B714853EC1A2B261851EC1A0BFCF7EA
:1041E000E1F841EC1F0B6D48C4F1510404F5D724EC
:1041F000B0EE4F0AF0EE6F0A0321784400F0D2F8D7
:1042000053EC1F2B51EC100BFCF7CCF841EC1C0BC2
:104210006348B0EE4F0AF0EE6F0A0421784400F0D4
:10422000C1F853EC1A2B51EC100BFCF7BBF83443DC
:1042300053EC1C2BFCF70FF841EC1C0B002C4CDD55
:104240009FED510B51EC180B53EC102BFCF7AAF817
:1042500053EC182BFCF7A6F841EC1A0B55B353ECB2
:104260001D2B51EC1B0BFCF79DF841EC1D0B53EC87
:104270001C2B51EC1A0BFBF7EEFF53EC192BFCF740
:1042800091F853EC1D2BFBF7E6FF53EC1A2BFCF7D0
:1042900086F853EC182BFCF77FF841EC180B53EC25
:1042A0001E2B51EC1B0BFCF77DF853EC182BFCF785
:1042B00073F869E753EC1C2B51EC1A0BFBF7CBFF9F
:1042C00053EC192BFCF76EF853EC1A2BFCF767F83C
:1042D00053EC182BFCF763F856E735B353EC1D2B62
:1042E00051EC1B0BFCF75EF841EC1A0B53EC1C2B4A
:1042F00051EC180BFCF750F853EC192BFCF752F863
:1043000053EC1A2BFCF748F853EC182BFCF744F845
:1043100041EC180B53EC1E2B51EC1B0BFCF742F835
:1043200053EC182BFCF738F82EE753EC1C2B51EC10
:10433000180BFCF731F853EC192BFCF733F853EC5E
:10434000182BFCF72CF81FE70000F07F000000009E
:104350000000000000005043645F090000000000FE
:10436000000000000000F03F763C7935EF39EA3D6F
:104370000000E0FE422EE63F0811000000000000B1
:10438000555555555555D53F000000000000E03FFC
:10439000000000000000004086EBF9FF8A0F0000DB
:1043A000800F000070B504462DED028B4D1E00EB12
:1043B000C500B0EE408AF0EE608A90ED000B35F05B
:1043C000060017D053EC182B51EC100BFBF7EAFF4B
:1043D00041EC100B6D1E04EBC50090ED001B51EC81
:1043E000100B53EC112BFBF736FF41EC100B35F0A3
:1043F0000600E7D1022D36D0042D1CD0062D1CBF9F
:10440000BDEC028B70BD53EC182B51EC100BFBF77D
:10441000C9FF94ED0A1B53EC112BFBF71CFF53EC67
:10442000182BFBF7BFFF94ED081B53EC112BFBF788
:1044300012FF41EC100B53EC182B51EC100BFBF757
:10444000B1FF94ED061B53EC112BFBF704FF53EC6B
:10445000182BFBF7A7FF94ED040B53EC102BFBF785
:10446000FAFE41EC100B53EC182B51EC100BFBF740
:1044700099FF94ED021B53EC112BFBF7ECFE53EC70
:10448000182BFBF78FFF94ED001B53EC112BFBF760
:10449000E2FEBDEC028B41EC100B70BD0000000091
:1044A0009FED070B10B553EC102B9FED070B51EC54
:1044B000100BFBF7E9FF41EC100B10BD00000000F2
:1044C0000000000000000000000000000000F03FBD
:1044D00010B553EC102B51EC100BFBF7BCFE41EC6C
:1044E000100B10BD000000009FED050B10B553EC44
:1044F000102B51EC100BFBF7C7FF41EC100B10BD5C
:10450000000000000000000002E008C8121F08C1FF
:10451000002AFAD170477047002001E001C1121F44
:10452000002AFBD170470000014908607047000075
:1045300094010020FDF798F9FFF748FBFEF740FDD6
:10454000FEF72EFEFEF700FDFEF782FEFEF7CAFD27
:10455000FEF74AFE1548FEF77FF9FEF7F1FFFEF77A
:10456000B0FF4FF47A74002111220846FFF788F853
:10457000122200211020FFF783F8132200212020AF
:10458000FFF77EF8142200213020FFF779F815227A
:1045900000214020FFF774F8162200215020FFF779
:1045A0006FF82046FDF702F8DDE700005802002012
:1045B0000246012000E05043491EC9B2FBD27047B9
:1045C00000000000000000000000000000000000EB
:1045D000000000F800000000000000333000000080
:1045E00000100C06100C0600000000000000000087
:1045F00040C07840C0784000043F04043F040400F9
:10460000007088FC08300000001820FF211E000008
:10461000F008F000E018000000211C031E211E001D
:1046200000F00888700000001E21232419272110A3
:1046300010160E0000000000000000000000000046
:10464000000000E0180402000000000718204000ED
:1046500000020418E00000000040201807000000DD
:10466000404080F0804040000202010F0102020041
:10467000000000F0000000000101011F0101010025
:10468000000000000000000080B07000000000008A
:104690000000000000000000000101010101010113
:1046A00000000000000000000030300000000000AA
:1046B000000000008060180400601806010000007F
:1046C00000E010080810E000000F102020100F007C
:1046D000001010F8000000000020203F2020000003
:1046E000007008080888700000302824222130005B
:1046F00000300888884830000018202020110E0063
:104700000000C02010F8000000070424243F24000B
:1047100000F80888880808000019212020110E00E0
:1047200000E0108888180000000F112020110E00F2
:1047300000380808C83808000000003F00000000EA
:104740000070880808887000001C222121221C00AB
:1047500000E010080810E0000000312222110F00D4
:10476000000000C0C0000000000000303000000069
:1047700000000080000000000000806000000000D9
:1047800000008040201008000001020408102000F2
:10479000404040404040400004040404040404003D
:1047A00000081020408000000020100804020100D2
:1047B000007048080808F0000000003036010000D2
:1047C000C030C828E810E0000718272423140B0085
:1047D0000000C038E0000000203C230202273820FF
:1047E00008F8888888700000203F202020110E00E3
:1047F000C0300808080838000718202020100800DA
:1048000008F808080810E000203F202020100F00C2
:1048100008F88888E8081000203F2020232018008E
:1048200008F88888E8081000203F200003000000F6
:10483000C03008080838000007182020221E020097
:1048400008F808000008F808203F210101213F2056
:10485000000808F8080800000020203F2020000081
:1048600000000808F8080800C08080807F00000071
:1048700008F888C028180800203F200126382000AA
:1048800008F8080000000000203F20202020300011
:1048900008F8F800F8F80800203F003F003F20002B
:1048A00008F830C00008F808203F200007183F0033
:1048B000E01008080810E0000F10202020100F0062
:1048C00008F808080808F000203F21010101000055
:1048D000E01008080810E0000F18242438504F009A
:1048E00008F8888888887000203F2000030C30205A
:1048F00000708808080838000038202121221C0098
:10490000180808F8080818000000203F20000000E0
:1049100008F808000008F808001F202020201F00C9
:104920000878880000C83808000007380E01000029
:10493000F80800F80008F800033C0700073C0300F3
:10494000081868808068180820302C03032C302059
:104950000838C800C83808000000203F20000000C8
:1049600010080808C8380800203826212020180020
:10497000000000FE020202000000007F40404000F4
:10498000000C30C000000000000000010638C0002C
:1049900000020202FE000000004040407F000000D4
:1049A00000000402020204000000000000000000F9
:1049B00000000000000000008080808080808080F7
:1049C00000020204000000000000000000000000DF
:1049D00000008080808000000019242222223F20D5
:1049E00008F8008080000000003F112020110E0018
:1049F0000000008080800000000E112020201100A7
:104A0000000000808088F800000E112020103F2058
:104A10000000808080800000001F222222221300DC
:104A2000008080F0888888180020203F2020000027
:104A30000000808080808000006B949494936000DC
:104A400008F8008080800000203F210000203F20E7
:104A500000809898000000000020203F20200000E7
:104A6000000000809898000000C08080807F0000D7
:104A700008F8000080808000203F24022D302000B4
:104A8000000808F8000000000020203F202000005F
:104A90008080808080808000203F20003F20003F79
:104AA0008080008080800000203F210000203F2087
:104AB0000000808080800000001F202020201F0038
:104AC000808000808000000080FFA12020110E0067
:104AD0000000008080808000000E112020A0FF8058
:104AE000808080008080800020203F212000010005
:104AF000000080808080800000332424242419005A
:104B0000008080E0808000000000001F2020000066
:104B10008080000000808000001F202020103F20A7
:104B2000808080000080808000010E300806010037
:104B300080800080008080800F300C030C300F00DC
:104B400000808000808080000020312E0E31200007
:104B5000808080000080808080818E701806010037
:104B600000808080808080000021302C2221300055
:104B700000000000807C020200000000003F404076
:104B800000000000FF00000000000000FF00000027
:104B90000002027C800000000040403F0000000056
:104BA00000060101020204040000000000000000F1
:104BB0000000F888888888FF88888888F8000000C6
:104BC00000000000000000000000000000000000E5
:104BD00000001F080808087F888888889F80F000E8
:104BE00000000000000000000000000000000000C5
:104BF00000FE0222DA0600FE22222222FE0000002F
:104C000000000000000000000000000000000000A4
:104C100000FF08100847407F424242427F40400068
:104C20000000000000000000000000000000000084
:104C3000100C4424148445264484142444140C0089
:104C40000000000000000000000000000000000064
:104C5000040402FE45444444444445FE0204040066
:104C60000000000000000000000000000000000044
:104C70000000FC04D4545454D4047F84C53604008A
:104C80000000000000000000000000000000000024
:104C90008866010063828292AB8482C10224CF00C5
:104CA0000000000000000000000000000000000004
:104CB000000008080808080808080808080000009C
:104CC00000000000000000000000000000000000E4
:104CD00010101010101010101010101010101000E4
:104CE00000000000000000000000000000000000C4
:104CF0001010D0FF90100202FE0202625AC600009D
:104D000000000000000000000000000000000000A3
:104D1000040300FF0043308F80432C102C4380009D
:104D20000000000000000000000000000000000083
:104D3000886423A2A6AAA2BAA4A3A2262AA26200D9
:104D40000000000000000000000000000000000063
:104D5000000000FF4A4A4A4A4A4A4BF80000000055
:104D60000000000000000000000000000000000043
:104D70000000F00804020202020408F00000000033
:104D80000000000000000000000000000000000023
:104D900000000C090A0C00000C0A090C00000000BD
:104DA0000000000000000000000000000000000003
:104DB00080808888888888FF8888888888808000A4
:104DC00000000000000000000000000000000000E3
:104DD00020201008040201FF010204081020200016
:104DE00000000000000000000000000000000000C3
:104DF0001010D0FF905020504C434C5020404000A9
:104E000000000000000000000000000000000000A2
:104E1000040300FF00414458414E605847404000A1
:104E20000000000000000000000000000000000082
:104E30001060028C00FE02F202FE00F800FF00008B
:104E40000000000000000000000000000000000062
:104E500004047E018047300F10270047807F000048
:104E60000000000000000000000000000000000042
:104E70004262524AC6425262C200F80000FF00007D
:104E80000000000000000000000000000000000022
:104E900040C444447F24242420000F40807F00002D
:104EA0000000000000000000000000000000000002
:104EB0002020222222E2222222E22222222020007C
:104EC00000000000000000000000000000000000E2
:104ED000804020100C030000003F4040404078001C
:104EE00000000000000000000000000000000000C2
:104EF000008060F80780601C1010FF101010000088
:104F000000000000000000000000000000000000A1
:104F1000010000FF000202020202FF020202020080
:104F20000000000000000000000000000000000081
:104F30000080609F0808F80000FF102040800000FB
:104F40000000000000000000000000000000000061
:104F5000814020130C132020405F4040404140001E
:104F60000000000000000000000000000000000041
:104F7000048484FC848400FE9292FE9292FE0000DF
:104F80000000000000000000000000000000000021
:104F90002060201F1010404444447F44444440009B
:104FA0000000000000000000000000000000000001
:104FB0000000F010101010FF10101010F000000092
:104FC00000000000000000000000000000000000E1
:104FD00000000F04040404FF040404040F00000094
:104FE00000000000000000000000000000000000C1
:104FF000101010FF9020988888E98E8888A8980063
:1050000000000000000000000000000000000000A0
:105010000242817F000080844B28102847800000D6
:105020000000000000000000000000000000000080
:105030004030EF242480E49C105454FF547C100032
:105040000000000000000000000000000000000060
:1050500001017F21512618274445455F45454400FD
:105060000000000000000000000000000000000040
:1050700080828282FE8282828282FE82828280009E
:105080000000000000000000000000000000000020
:10509000008040300F0000000000FF000000000012
:1050A0000000000000000000000000000000000000
:1050B0001010F01F10F00040E05847405060C00052
:1050C00000000000000000000000000000000000E0
:1050D0004022150816210000FE42424242FE000016
:1050E00000000000000000000000000000000000C0
:1050F0001010D0FF905020504C434C5020404000A6
:10510000000000000000000000000000000000009F
:10511000040300FF00414458414E6058474040009E
:10512000000000000000000000000000000000007F
:105130001060028C00FE02F202FE00F800FF000088
:10514000000000000000000000000000000000005F
:1051500004047E018047300F10270047807F000045
:10516000000000000000000000000000000000003F
:105170000000000000000000010203040607080907
:10518000000000000102030404FA97999999D93F9D
:10519000AF788E1DC571CC3F9FC678D0099AC33FAA
:1051A000935555555555E53F599322942449D23F7F
:1051B000DE03CB966446C73F44523EDF12F1C23F46
:1051C0000000000000000000E8510008000000207E
:1051D000980100005008000838520008980100208B
:1051E0005005000018450008717A80010B10F0107E
:1051F000018AF01F01110B100704010211078941F8
:10520000590152FCFAFC18091061619A1F0601133A
:105210009941EDC02020C004092060011FE9BE0EA5
:10522000290810204080BE0D1708040201BE32017B
:0852300082105324F400000079
:040000050800019955
:00000001FF
